{
  "_format": "hh-sol-artifact-1",
  "contractName": "TransactionContract",
  "sourceName": "contracts/Transaction.sol",
  "abi": [
    {
      "inputs": [],
      "stateMutability": "nonpayable",
      "type": "constructor"
    },
    {
      "anonymous": false,
      "inputs": [
        {
          "indexed": false,
          "internalType": "uint256",
          "name": "transactionId",
          "type": "uint256"
        },
        {
          "indexed": false,
          "internalType": "uint256",
          "name": "transactionDate",
          "type": "uint256"
        },
        {
          "indexed": false,
          "internalType": "uint256",
          "name": "amount",
          "type": "uint256"
        },
        {
          "indexed": false,
          "internalType": "uint256",
          "name": "tier",
          "type": "uint256"
        },
        {
          "indexed": false,
          "internalType": "address",
          "name": "sender",
          "type": "address"
        },
        {
          "indexed": false,
          "internalType": "address",
          "name": "receiver",
          "type": "address"
        },
        {
          "indexed": false,
          "internalType": "bool",
          "name": "isIncome",
          "type": "bool"
        }
      ],
      "name": "TransactionAdded",
      "type": "event"
    },
    {
      "inputs": [
        {
          "internalType": "address payable",
          "name": "_receiver",
          "type": "address"
        },
        {
          "internalType": "uint256",
          "name": "_tier",
          "type": "uint256"
        },
        {
          "internalType": "uint256",
          "name": "_amount",
          "type": "uint256"
        }
      ],
      "name": "addTransactionAndSendEther",
      "outputs": [],
      "stateMutability": "payable",
      "type": "function"
    },
    {
      "inputs": [
        {
          "internalType": "address",
          "name": "_userAddress",
          "type": "address"
        }
      ],
      "name": "getIncomingTransactionHistory",
      "outputs": [
        {
          "components": [
            {
              "internalType": "uint256",
              "name": "transactionId",
              "type": "uint256"
            },
            {
              "internalType": "uint256",
              "name": "transactionDate",
              "type": "uint256"
            },
            {
              "internalType": "uint256",
              "name": "amount",
              "type": "uint256"
            },
            {
              "internalType": "uint256",
              "name": "tier",
              "type": "uint256"
            },
            {
              "internalType": "address",
              "name": "sender",
              "type": "address"
            },
            {
              "internalType": "address",
              "name": "receiver",
              "type": "address"
            }
          ],
          "internalType": "struct TransactionContract.Transaction[]",
          "name": "",
          "type": "tuple[]"
        }
      ],
      "stateMutability": "view",
      "type": "function"
    },
    {
      "inputs": [
        {
          "internalType": "address",
          "name": "_userAddress",
          "type": "address"
        }
      ],
      "name": "getOutgoingTransactionHistory",
      "outputs": [
        {
          "components": [
            {
              "internalType": "uint256",
              "name": "transactionId",
              "type": "uint256"
            },
            {
              "internalType": "uint256",
              "name": "transactionDate",
              "type": "uint256"
            },
            {
              "internalType": "uint256",
              "name": "amount",
              "type": "uint256"
            },
            {
              "internalType": "uint256",
              "name": "tier",
              "type": "uint256"
            },
            {
              "internalType": "address",
              "name": "sender",
              "type": "address"
            },
            {
              "internalType": "address",
              "name": "receiver",
              "type": "address"
            }
          ],
          "internalType": "struct TransactionContract.Transaction[]",
          "name": "",
          "type": "tuple[]"
        }
      ],
      "stateMutability": "view",
      "type": "function"
    },
    {
      "inputs": [
        {
          "internalType": "address",
          "name": "",
          "type": "address"
        },
        {
          "internalType": "uint256",
          "name": "",
          "type": "uint256"
        }
      ],
      "name": "incomingTransactions",
      "outputs": [
        {
          "internalType": "uint256",
          "name": "transactionId",
          "type": "uint256"
        },
        {
          "internalType": "uint256",
          "name": "transactionDate",
          "type": "uint256"
        },
        {
          "internalType": "uint256",
          "name": "amount",
          "type": "uint256"
        },
        {
          "internalType": "uint256",
          "name": "tier",
          "type": "uint256"
        },
        {
          "internalType": "address",
          "name": "sender",
          "type": "address"
        },
        {
          "internalType": "address",
          "name": "receiver",
          "type": "address"
        }
      ],
      "stateMutability": "view",
      "type": "function"
    },
    {
      "inputs": [
        {
          "internalType": "address",
          "name": "",
          "type": "address"
        },
        {
          "internalType": "uint256",
          "name": "",
          "type": "uint256"
        }
      ],
      "name": "outgoingTransactions",
      "outputs": [
        {
          "internalType": "uint256",
          "name": "transactionId",
          "type": "uint256"
        },
        {
          "internalType": "uint256",
          "name": "transactionDate",
          "type": "uint256"
        },
        {
          "internalType": "uint256",
          "name": "amount",
          "type": "uint256"
        },
        {
          "internalType": "uint256",
          "name": "tier",
          "type": "uint256"
        },
        {
          "internalType": "address",
          "name": "sender",
          "type": "address"
        },
        {
          "internalType": "address",
          "name": "receiver",
          "type": "address"
        }
      ],
      "stateMutability": "view",
      "type": "function"
    },
    {
      "inputs": [],
      "name": "transactionCount",
      "outputs": [
        {
          "internalType": "uint256",
          "name": "",
          "type": "uint256"
        }
      ],
      "stateMutability": "view",
      "type": "function"
    }
  ],
  "bytecode": "0x608060405234801561001057600080fd5b50600080819055506110ea806100276000396000f3fe6080604052600436106100555760003560e01c8063173a7b741461005a5780632e263e441461009c5780633621e3e3146100de57806344de09ea1461011b5780635878fbe314610158578063b77bf60014610174575b600080fd5b34801561006657600080fd5b50610081600480360381019061007c9190610a91565b61019f565b60405161009396959493929190610aef565b60405180910390f35b3480156100a857600080fd5b506100c360048036038101906100be9190610a91565b610238565b6040516100d596959493929190610aef565b60405180910390f35b3480156100ea57600080fd5b5061010560048036038101906101009190610b50565b6102d1565b6040516101129190610cc5565b60405180910390f35b34801561012757600080fd5b50610142600480360381019061013d9190610b50565b610443565b60405161014f9190610cc5565b60405180910390f35b610172600480360381019061016d9190610d25565b6105b5565b005b34801561018057600080fd5b506101896109f2565b6040516101969190610d78565b60405180910390f35b600260205281600052604060002081815481106101bb57600080fd5b9060005260206000209060060201600091509150508060000154908060010154908060020154908060030154908060040160009054906101000a900473ffffffffffffffffffffffffffffffffffffffff16908060050160009054906101000a900473ffffffffffffffffffffffffffffffffffffffff16905086565b6001602052816000526040600020818154811061025457600080fd5b9060005260206000209060060201600091509150508060000154908060010154908060020154908060030154908060040160009054906101000a900473ffffffffffffffffffffffffffffffffffffffff16908060050160009054906101000a900473ffffffffffffffffffffffffffffffffffffffff16905086565b6060600260008373ffffffffffffffffffffffffffffffffffffffff1673ffffffffffffffffffffffffffffffffffffffff168152602001908152602001600020805480602002602001604051908101604052809291908181526020016000905b8282101561043857838290600052602060002090600602016040518060c0016040529081600082015481526020016001820154815260200160028201548152602001600382015481526020016004820160009054906101000a900473ffffffffffffffffffffffffffffffffffffffff1673ffffffffffffffffffffffffffffffffffffffff1673ffffffffffffffffffffffffffffffffffffffff1681526020016005820160009054906101000a900473ffffffffffffffffffffffffffffffffffffffff1673ffffffffffffffffffffffffffffffffffffffff1673ffffffffffffffffffffffffffffffffffffffff168152505081526020019060010190610332565b505050509050919050565b6060600160008373ffffffffffffffffffffffffffffffffffffffff1673ffffffffffffffffffffffffffffffffffffffff168152602001908152602001600020805480602002602001604051908101604052809291908181526020016000905b828210156105aa57838290600052602060002090600602016040518060c0016040529081600082015481526020016001820154815260200160028201548152602001600382015481526020016004820160009054906101000a900473ffffffffffffffffffffffffffffffffffffffff1673ffffffffffffffffffffffffffffffffffffffff1673ffffffffffffffffffffffffffffffffffffffff1681526020016005820160009054906101000a900473ffffffffffffffffffffffffffffffffffffffff1673ffffffffffffffffffffffffffffffffffffffff1673ffffffffffffffffffffffffffffffffffffffff1681525050815260200190600101906104a4565b505050509050919050565b600081116105f8576040517f08c379a00000000000000000000000000000000000000000000000000000000081526004016105ef90610e16565b60405180910390fd5b4734111561063b576040517f08c379a000000000000000000000000000000000000000000000000000000000815260040161063290610e82565b60405180910390fd5b600042905060006040518060c0016040528060005481526020018381526020013481526020018581526020013373ffffffffffffffffffffffffffffffffffffffff1681526020018673ffffffffffffffffffffffffffffffffffffffff168152509050600160008673ffffffffffffffffffffffffffffffffffffffff1673ffffffffffffffffffffffffffffffffffffffff1681526020019081526020016000208190806001815401808255809150506001900390600052602060002090600602016000909190919091506000820151816000015560208201518160010155604082015181600201556060820151816003015560808201518160040160006101000a81548173ffffffffffffffffffffffffffffffffffffffff021916908373ffffffffffffffffffffffffffffffffffffffff16021790555060a08201518160050160006101000a81548173ffffffffffffffffffffffffffffffffffffffff021916908373ffffffffffffffffffffffffffffffffffffffff1602179055505050600260003373ffffffffffffffffffffffffffffffffffffffff1673ffffffffffffffffffffffffffffffffffffffff1681526020019081526020016000208190806001815401808255809150506001900390600052602060002090600602016000909190919091506000820151816000015560208201518160010155604082015181600201556060820151816003015560808201518160040160006101000a81548173ffffffffffffffffffffffffffffffffffffffff021916908373ffffffffffffffffffffffffffffffffffffffff16021790555060a08201518160050160006101000a81548173ffffffffffffffffffffffffffffffffffffffff021916908373ffffffffffffffffffffffffffffffffffffffff160217905550505060008573ffffffffffffffffffffffffffffffffffffffff163460405161090790610ed3565b60006040518083038185875af1925050503d8060008114610944576040519150601f19603f3d011682016040523d82523d6000602084013e610949565b606091505b505090508061098d576040517f08c379a000000000000000000000000000000000000000000000000000000000815260040161098490610f34565b60405180910390fd5b7f0ce79227c0eb473b0660858a9b4b680597db3f7b2ab030260ec4bd57dc708e1a600054848688338b60006040516109cb9796959493929190610fce565b60405180910390a16000808154809291906109e59061106c565b9190505550505050505050565b60005481565b600080fd5b600073ffffffffffffffffffffffffffffffffffffffff82169050919050565b6000610a28826109fd565b9050919050565b610a3881610a1d565b8114610a4357600080fd5b50565b600081359050610a5581610a2f565b92915050565b6000819050919050565b610a6e81610a5b565b8114610a7957600080fd5b50565b600081359050610a8b81610a65565b92915050565b60008060408385031215610aa857610aa76109f8565b5b6000610ab685828601610a46565b9250506020610ac785828601610a7c565b9150509250929050565b610ada81610a5b565b82525050565b610ae981610a1d565b82525050565b600060c082019050610b046000830189610ad1565b610b116020830188610ad1565b610b1e6040830187610ad1565b610b2b6060830186610ad1565b610b386080830185610ae0565b610b4560a0830184610ae0565b979650505050505050565b600060208284031215610b6657610b656109f8565b5b6000610b7484828501610a46565b91505092915050565b600081519050919050565b600082825260208201905092915050565b6000819050602082019050919050565b610bb281610a5b565b82525050565b610bc181610a1d565b82525050565b60c082016000820151610bdd6000850182610ba9565b506020820151610bf06020850182610ba9565b506040820151610c036040850182610ba9565b506060820151610c166060850182610ba9565b506080820151610c296080850182610bb8565b5060a0820151610c3c60a0850182610bb8565b50505050565b6000610c4e8383610bc7565b60c08301905092915050565b6000602082019050919050565b6000610c7282610b7d565b610c7c8185610b88565b9350610c8783610b99565b8060005b83811015610cb8578151610c9f8882610c42565b9750610caa83610c5a565b925050600181019050610c8b565b5085935050505092915050565b60006020820190508181036000830152610cdf8184610c67565b905092915050565b6000610cf2826109fd565b9050919050565b610d0281610ce7565b8114610d0d57600080fd5b50565b600081359050610d1f81610cf9565b92915050565b600080600060608486031215610d3e57610d3d6109f8565b5b6000610d4c86828701610d10565b9350506020610d5d86828701610a7c565b9250506040610d6e86828701610a7c565b9150509250925092565b6000602082019050610d8d6000830184610ad1565b92915050565b600082825260208201905092915050565b7f457468657220616d6f756e74206d75737420626520677265617465722074686160008201527f6e20300000000000000000000000000000000000000000000000000000000000602082015250565b6000610e00602383610d93565b9150610e0b82610da4565b604082019050919050565b60006020820190508181036000830152610e2f81610df3565b9050919050565b7f496e73756666696369656e742045746865722073656e74000000000000000000600082015250565b6000610e6c601783610d93565b9150610e7782610e36565b602082019050919050565b60006020820190508181036000830152610e9b81610e5f565b9050919050565b600081905092915050565b50565b6000610ebd600083610ea2565b9150610ec882610ead565b600082019050919050565b6000610ede82610eb0565b9150819050919050565b7f4661696c656420746f2073656e64204574686572000000000000000000000000600082015250565b6000610f1e601483610d93565b9150610f2982610ee8565b602082019050919050565b60006020820190508181036000830152610f4d81610f11565b9050919050565b6000819050919050565b6000610f79610f74610f6f846109fd565b610f54565b6109fd565b9050919050565b6000610f8b82610f5e565b9050919050565b6000610f9d82610f80565b9050919050565b610fad81610f92565b82525050565b60008115159050919050565b610fc881610fb3565b82525050565b600060e082019050610fe3600083018a610ad1565b610ff06020830189610ad1565b610ffd6040830188610ad1565b61100a6060830187610ad1565b6110176080830186610ae0565b61102460a0830185610fa4565b61103160c0830184610fbf565b98975050505050505050565b7f4e487b7100000000000000000000000000000000000000000000000000000000600052601160045260246000fd5b600061107782610a5b565b91507fffffffffffffffffffffffffffffffffffffffffffffffffffffffffffffffff82036110a9576110a861103d565b5b60018201905091905056fea2646970667358221220e08c5376828cf5a3de24693a018e9bac6bfe1081e950d10187db4009bf098fbd64736f6c63430008130033",
  "linkReferences": {},
  "deployedLinkReferences": {}
}